:0C0000000C944D000C9400000C940000C7
:10000C000C9400000C9400000C9400000C94000064
:10001C000C9400000C9400000C9400000C94000054
:10002C000C9400000C9400000C9400000C94000044
:10003C000C9400000C9400000C9400000C94000034
:10004C000C9400000C9400001027E80364000A00D4
:10005C000100001000011000010000000000000071
:10006C000000010000000000000000000000000083
:10007C00000001002D4E414E00494E46000080C04C
:10008C00010060027E00020064028A000000F89405
:10009C00EE27ECBBF1E0FBBFEBBFE5BF8DE0A2E0D0
:1000AC00BB27ED938A95E9F780E098E0A0E6ED9305
:1000BC000197E9F7ECE8F0E085919591009761F0F4
:1000CC00A591B59105901590BF01F00105900D9289
:1000DC000197E1F7FB01F0CFEFE5EDBFE8E0EEBFF4
:1000EC00C0E6D2E00C94E400BA93AA932C978CE06F
:1000FC00A0E0B0E0E6E6F0E00E94C707AC85BD8565
:10010C00E2E0F0E00E944C070E942707EC83FD839D
:10011C006E837F83AC85BD85109711F0119719F410
:10012C00EC85FD8549C0EC81FD816E817F81A885C0
:10013C00B9858A859B850E94C207E4F12297EE81DE
:10014C00FF8168857985AA85BB858C859D850E94F4
:10015C001607E2E0F0E060E070E00E947607E883CA
:10016C00F9830E948804EA17FB0721F4E881F981DE
:10017C00229622C00E948804AE17BF0784F4E8813F
:10018C00F98131960E942707EA87FB876C877D8768
:10019C00E881F9810E9427070E94920409C0E88136
:1001AC00F98131970E942707EE83FF83688779874F
:1001BC002296B9CFE881F9812E960895A4978CE008
:1001CC00AAE0B0E0E2E7F0E00E94C707FF2410E0ED
:1001DC003FEF40E050E0E0E0EABBEBBBE7BBE8BB45
:1001EC00EFEFE4BBE0E0E5BBEFE0E1BBE0E0E2BB5E
:1001FC00E3BFE2BFECBFEFBDEEBDEDBDECBDE7BDB7
:10020C00E6BDEBBDEABDE9BDE8BDE2BDE5BDE4BDC3
:10021C00E3BDE9BFE5BFE4BFEAB9E0E8E8B9E0EC6B
:10022C00E7B9E7EAE6B9E0E0E0BFEDB9E6BFA0E187
:10023C000E941304E1E0E2BB849B14C0F1FC07C0F4
:10024C000E9497040E94A2040E94A90406C00E9466
:10025C00AE040E94A2040E94B9040E94BE04A7E34B
:10026C000E94ED03859B14C0F1FC07C00E9497040B
:10027C000E94C3040E94A90406C00E94AE040E94FE
:10028C00C3040E94B9040E94BE04A8E30E94ED03BB
:10029C00869B14C0F1FC07C00E9497040E94CA04FC
:1002AC000E94A90406C00E94AE040E94CA040E94C7
:1002BC00B9040E94BE04A9E30E94ED03879B11C000
:1002CC00E1E0F0E0E417F50719F445E050E004C074
:1002DC0041E050E06894F1F80E94BE04AFE20E9445
:1002EC00ED030E94D104E2E0E2BB849B14C0F1FC5C
:1002FC0007C00E9497040E94D5040E94A90406C05E
:10030C000E94AE040E94D5040E94B9040E94BE044F
:10031C00A4E30E94ED03859B14C0F1FC07C00E946E
:10032C0097040E94DC040E94A90406C00E94AE043B
:10033C000E94DC040E94B9040E94BE04A5E30E9442
:10034C00ED03869B14C0F1FC07C00E9497040E9429
:10035C00E3040E94A90406C00E94AE040E94E304B8
:10036C000E94B9040E94BE04A6E30E94ED03879B81
:10037C0011C0E2E0F0E0E417F50719F446E050E0B4
:10038C0004C042E050E06894F1F80E94BE04AAE276
:10039C000E94ED030E94D104E4E0E2BB849B14C0F4
:1003AC00F1FC07C00E9497040E94EA040E94A90471
:1003BC0006C00E94AE040E94EA040E94B9040E9486
:1003CC00BE04A1E30E94ED03859B14C0F1FC07C0A1
:1003DC000E9497040E94F1040E94A90406C00E9486
:1003EC00AE040E94F1040E94B9040E94BE04A2E370
:1003FC000E94ED03869B14C0F1FC07C00E94970479
:10040C000E94F8040E94A90406C00E94AE040E9437
:10041C00F8040E94B9040E94BE04A3E30E94ED03F9
:10042C00879B11C0E3E0F0E0E417F50719F447E00F
:10043C0050E004C043E050E06894F1F80E94BE0420
:10044C00ADE20E94ED030E94D104E8E0E2BB849B84
:10045C0014C00E94E103E0E0EA8BEB8BEC8BED8B9C
:10046C00EE87EF87E88BE98BEA87EB87EC87ED87E4
:10047C0040E050E03FEFE894F1F8859B14C0F1FCAC
:10048C0007C00E9497040E94FF040E94A90406C0A2
:10049C000E94AE040E94FF040E94B9040E94BE0494
:1004AC00A0E30E94ED03869B6CC00E94BE04ADE3EA
:1004BC000E94ED03FA01E130A0E0FA0729F40E9452
:1004CC0006050E94B10648C0E230A0E0FA0729F404
:1004DC000E9406050E9463063FC0E330A0E0FA07C5
:1004EC0049F4AE85BF85888999890E940F050E94C1
:1004FC000C0632C0E430A0E0FA0719F40E9406059D
:10050C0029C0E530A0E0FA0749F40E940F050E94CB
:10051C00A205DF01E9DD0E9414051EC0E630A0E053
:10052C00FA0749F40E940F05AA89BB898C899D8919
:10053C000E94630611C0E730A0E0FA0729F40E947C
:10054C0019050E940C0608C0E830A0E0FA0741F437
:10055C000E9419050E941306EA87FB876C877D872A
:10056C00EA85FB856C857D850E94AB07E2E0EA930A
:10057C00DE0115960E94EB020E94BE04DE010E9471
:10058C000204879B11C0E4E0F0E0E417F50719F4CE
:10059C0048E050E004C044E050E06894F1F80E9458
:1005AC00BE04ABE20E94ED030E94D10443CEFFCF08
:1005BC00BA93AA93E991F991A991B991CD010590BA
:1005CC000D920020E1F7FC010895BA93AA932497A9
:1005DC00E0E0E883E983EA83EFE3EB831A930A9381
:1005EC00EB85FC85EF3FAFEFFA0739F40E941F054E
:1005FC00A0E8B0E00E94DE02ADC0EF3FAFE7FA0723
:10060C0039F40E941F05A1E8B0E00E94DE02A2C0EE
:10061C00AC85AA2362F4E985FA856B857C850E94FA
:10062C006D050E9424050E942905EDE2EC93A88536
:10063C00A73010F0E6E0E8871885E12F1150E03084
:10064C0039F00E9430050E9435050E949204F5CFC6
:10065C000E943C050E9413060E94240510E0E0E075
:10066C00F0E060E87FE30E9492040E943C050E9447
:10067C00F60688F00E9430050E9445050E949204FF
:10068C001F5F173238F00E941F05A5E8B0E00E94EA
:10069C00DE0260C0EACF103029F40E942905E0E3A5
:1006AC00EC932DC0E12F1150E03049F10E94300540
:1006BC000E943505A0E0B0E080E09FE30E941306A5
:1006CC00DF01CB010E9471040E9492040E943C0540
:1006DC000E94B1060E94A0050E2F0E942905E02F52
:1006EC00E05DEC93E02FF0E00E9430050E941405D1
:1006FC000E9463060E944C050E945105D3CFE885E9
:10070C00E03021F10E942905EEE2EC93E885E150FE
:10071C00E887EF5FD9F00E944C050E9445050E94C6
:10072C002405E985FA856B857C850E94A0050E2F32
:10073C000E942905E02FE05DEC93E02FF0E00E9491
:10074C004C050E9414050E945105E0CFAE81BF817B
:10075C00E0E0EC93198108812D960895AA93E5B3F6
:10076C00EF70AE2FE881E07FEA2BE5BB82E08A9543
:10077C00F1F7AA9A82E08A95F1F7AA9882E08A9515
:10078C00F1F776C0AA93A881E9DFE881E295E883C6
:10079C00A881E4DF81E18A95F1F76AC0AA93E88128
:1007AC00F0E0EC59FD4FE081A981AE0FEBDF5980F1
:1007BC00488022960895A2E00E945605ACE0E2DF44
:1007CC00A1E00E945605E0E04E2E5E2E0895AA93FD
:1007DC00A881AA3011F0571448F0E0E0EA93439452
:1007EC00A42DDCDFA881AA3009F442C05394A89A46
:1007FC00A881C8DFA8983CC0BA93AA931A93A98180
:10080C00BA81ED91A983BA831E2FE03019F0A12F84
:10081C00DEDFF5CF188123960895AA93E4B3E06F39
:10082C00E4BBA29AA09AA19AAA98A898A9987880B1
:10083C00E881E058E0936602E881E054E0936702B7
:10084C00A4E1B0E00E9463050E945C050E945C0577
:10085C000E945C05A0E282DF81E28A95F1F7A8E2B2
:10086C0091DFA4E08FDFA5E88DDFA6E08BDFA3DFAF
:10087C00219608950E94B0077B816A81F981E881F5
:10088C0077FB770F67FD7160972F9E5781F078F09B
:10089C00983190F4AA27BB27882708948795B79599
:1008AC00A7959A95D1F7EA23FB23682305C0E89412
:1008BC007727EE27FF2766276F77769508F4606811
:1008CC0077F9A991B99189919991EA17FB07680772
:1008DC00790797FB08950E94B0070E94A1070E9418
:1008EC0040040E94A60719F40E949C0709C0E6F771
:1008FC000E949C07A0E0B0E080E89FE30E940C06F9
:10090C0024960895E881F981A881B9810E94340761
:10091C00DF01EE85FF850895EA83FB836C837D837D
:10092C000895AA89BB898C899D89E0E0F0E060E29A
:10093C0071E40E9463060895A0E0B0E080EE90E4BC
:10094C000E9413060895EA8BFB8B6C8B7D8B0895AC
:10095C00AE85BF8588899989E0E0F0E060E271E4BA
:10096C000E9463060895EE87FF87688B798B089544
:10097C003F5F3A93A1E00C94D403A0E0B0E080E098
:10098C0091E40E9413060895A0E0B0E080E191E4A8
:10099C000E9413060895A0E5B0E00C946305A0E056
:1009AC00B0E080E890E40E9413060895A0E0B0E067
:1009BC0080EA90E40E9413060895A0E0B0E080EC79
:1009CC0090E40E9413060895A0E0B0E080E89FE355
:1009DC000E9413060895A0E0B0E080E090E40E942D
:1009EC0013060895A0E0B0E080E490E40E941306A2
:1009FC000895A0E0B0E080E090E00E941306089516
:100A0C00EE85FF8568897989AA89BB898C899D893E
:100A1C000895EA89FB896C897D8908950E942707CE
:100A2C000E94D9050895F5DFA0E0B0E080E89FE3CF
:100A3C000895EE81FF81FA93EA930895E987FA8786
:100A4C006B877C870895AE81BF811196AE83BF837F
:100A5C0011970895AA81BB818C819D810895EDEC3D
:100A6C00FCEC6CEC7DE30E9463060895EA81FB814B
:100A7C006C817D81A985BA858B859C850895E0E084
:100A8C00F0E060E271E40E9463060895A985BA85DE
:100A9C008B859C8508950E94B5070E940C06CECFCD
:100AAC000E94C803A3E0B0E00C946305A0E30E948D
:100ABC00B40381E28A95F1F70895109639F08AEF24
:100ACC0090E00197F1F7A8951197C9F70895309721
:100ADC006040704009F070580895552342F4503826
:100AEC0011F4E0FF04C03196691F791F6BF050E8D8
:100AFC00572711F45F93CFC05F3F31F0660F000CA6
:100B0C0057956795752F08955F9300200AF0CFC015
:100B1C00C8C050E8192E1522880F991F9527550F1C
:100B2C00879550E8072E0522660F771F7527550FFE
:100B3C0067950895689401C0E8945F93F2DF70386C
:100B4C0018F07F3F08F4A7C056E1571BAAF4519543
:100B5C0058300EF4593030F0EFEFFFEF6FEF7FE7C6
:100B6C0077F91AC077275523B9F0EE0FFF1F661FD0
:100B7C00771F5A95D1F710C07727583028F0EF2FF0
:100B8C00F62F672F5850F9CF552331F0769567958E
:100B9C00F795E7955A95D1F700200AF44AD15F9161
:100BAC000895689401C0E894309760407040B1F0AB
:100BBC00002426F0772312F400943BD1172E7EE10B
:100BCC00112032F07A95EE0FFF1F661F111CF9CF22
:100BDC00EF2FF62F612D5F938ADF5F9108954F936E
:100BEC00AF01FD01DA01AB01BC01CA01402D012CA2
:100BFC00142E4F910895EA0FFB1F681F0895E0957E
:100C0C00F0956095EF5FFF4F6F4F08955F9381DF15
:100C1C00903871F150E8152604C05F937ADF903854
:100C2C0039F1703821F1572F591B2BF112F4D7DF02
:100C3C00FACF583118F0AA27BB278827583028F04C
:100C4C00AB2FB82F88275850F9CF552329F086950C
:100C5C00B795A7955A95D9F7502D512572F0CBDF42
:100C6C0038F46795F795E795739513F420C0B7DFC3
:100C7C003EDF5F910895D8F7FBCFEA1BFB0B680BA7
:100C8C0051F010F40094BBDF662392F3EE0FFF1FBC
:100C9C00661F7A95CBF7EE27FF27662777275F919C
:100CAC000895EFEFFFEF6FE77FEF5F910895EFEFA0
:100CBC00FFEF6FE77FE75F9108955F932ADF70384E
:100CCC0051F3903841F301240894791F23F41CF359
:100CDC0000203AF3ECCF0F921F932F933F934F9337
:100CEC00112722279927689FA0018F9F302D410D36
:100CFC00591F6B9F300D411D591F8E9F27D0BF9FD1
:100D0C0025D06A9F23D0BE9F1DD0AF9F1BD0AE9F16
:100D1C00110D291F391F491F591FE32FF42F652F60
:100D2C00522F4F913F912F911F910F9066232AF0D4
:100D3C00550FEE1FFF1F661F02C073954BF2CDDEE1
:100D4C005F910895100D211D391F02C0200D311D1A
:100D5C00491F591F08955F93DCDE703821F4112070
:100D6C000AF49FCFA4CF903809F495CF01240894AE
:100D7C00970B1BF4D4F30020F3CF792F1F932F93F1
:100D8C003F934F93112411272227332744275527AC
:100D9C0090E2AE17BF078607410730F0AE1BBF0BC2
:100DAC00860B410B089401C08894551F221F331FDA
:100DBC00111CAA1FBB1F881F441F9A9551F7F901DC
:100DCC00612D4F913F912F911F91662332F0550F5A
:100DDC00EE1FFF1F661F7A9543F27FDE5F91089529
:100DEC0099239AF0772342F0971748F029F4AE171D
:100DFC00BF07860720F031F0989488940895989452
:100E0C00089408951894889408957723C2F7971737
:100E1C0098F3A9F7EA17FB07680788F399F3ECCF67
:100E2C00AE0FBF1F861F971F0895F195E195F040F7
:100E3C000895F09560957095E195FF4F6F4F7F4F3A
:100E4C0008956F2F660F660B762F0895FA9FF02D7D
:100E5C00EB9FF00DEA9FE02DF10D089546D0F6DFE3
:100E6C000EF4E3DF08950024112490E1AA0FBB1FB8
:100E7C00001C111C0E1A1F0A18F40E0E1F1E01C0A6
:100E8C00A1609A9599F7FD01D00108952ED0EBDF62
:100E9C000EF4CBDF08953F934F935F9300241124FE
:100EAC004427552730E2AA0FBB1F881F991F001C2F
:100EBC00111C441F551F0E1A1F0A460B570B28F402
:100ECC000E0E1F1E461F571F01C0A1603A9559F701
:100EDC00FD01BC01D001CA015F914F913F91089572
:100EEC0012D0D9DF0EF4A5DF0895E894F7FF02C005
:100EFC009CDF6894B7FF06C0A095B095119600F8DA
:100F0C00039400FA0895E89477FF02C092DF689486
:100F1C0097FF0BC00024A095B095809590951196E5
:100F2C00801D901D00F8039400FA0895E881F98162
:100F3C006A817B810895A881B9818A819B810895FA
:100F4C00E883F9836A837B8308957A936A93FA938F
:100F5C00EA9308959A938A93BA93AA930895182EB4
:100F6C00862F612D192E972F712D1B2EBF2FF12D32
:100F7C001A2EAE2FE12D0895EA17FB0768077907A3
:100F8C000895AC0FBD1F05900D928A95E1F7089559
:00000001FF
